{
  "contractName": "Resolver",
  "abi": [
    {
      "anonymous": false,
      "inputs": [
        {
          "indexed": true,
          "internalType": "bytes32",
          "name": "uid",
          "type": "bytes32"
        }
      ],
      "name": "SchemaRegistered",
      "type": "event"
    },
    {
      "inputs": [
        {
          "internalType": "bytes32",
          "name": "",
          "type": "bytes32"
        }
      ],
      "name": "schemas",
      "outputs": [
        {
          "internalType": "string",
          "name": "",
          "type": "string"
        }
      ],
      "stateMutability": "view",
      "type": "function",
      "constant": true
    },
    {
      "inputs": [
        {
          "internalType": "bytes32",
          "name": "uid",
          "type": "bytes32"
        },
        {
          "internalType": "string",
          "name": "schema",
          "type": "string"
        }
      ],
      "name": "registerSchema",
      "outputs": [],
      "stateMutability": "nonpayable",
      "type": "function"
    },
    {
      "inputs": [
        {
          "internalType": "bytes32",
          "name": "uid",
          "type": "bytes32"
        }
      ],
      "name": "getSchema",
      "outputs": [
        {
          "internalType": "string",
          "name": "",
          "type": "string"
        }
      ],
      "stateMutability": "view",
      "type": "function",
      "constant": true
    }
  ],
  "bytecode": "0x608060405234801561000f575f80fd5b506108b58061001d5f395ff3fe608060405234801561000f575f80fd5b506004361061003f575f3560e01c806342952fa614610043578063a2ea7c6e1461005f578063ca2adef61461008f575b5f80fd5b61005d60048036038101906100589190610426565b6100bf565b005b61007960048036038101906100749190610480565b61016c565b6040516100869190610525565b60405180910390f35b6100a960048036038101906100a49190610480565b61020c565b6040516100b69190610525565b60405180910390f35b5f805f8481526020019081526020015f2080546100db90610572565b90501461011d576040517f08c379a0000000000000000000000000000000000000000000000000000000008152600401610114906105ec565b60405180910390fd5b805f808481526020019081526020015f20908161013a91906107b0565b50817feaf457e3ccde4913254e7c26bb98dbc141f4b7c4d02261367b13fc828f4f5e1560405160405180910390a25050565b60605f808381526020019081526020015f20805461018990610572565b80601f01602080910402602001604051908101604052809291908181526020018280546101b590610572565b80156102005780601f106101d757610100808354040283529160200191610200565b820191905f5260205f20905b8154815290600101906020018083116101e357829003601f168201915b50505050509050919050565b5f602052805f5260405f205f91509050805461022790610572565b80601f016020809104026020016040519081016040528092919081815260200182805461025390610572565b801561029e5780601f106102755761010080835404028352916020019161029e565b820191905f5260205f20905b81548152906001019060200180831161028157829003601f168201915b505050505081565b5f604051905090565b5f80fd5b5f80fd5b5f819050919050565b6102c9816102b7565b81146102d3575f80fd5b50565b5f813590506102e4816102c0565b92915050565b5f80fd5b5f80fd5b5f601f19601f8301169050919050565b7f4e487b71000000000000000000000000000000000000000000000000000000005f52604160045260245ffd5b610338826102f2565b810181811067ffffffffffffffff8211171561035757610356610302565b5b80604052505050565b5f6103696102a6565b9050610375828261032f565b919050565b5f67ffffffffffffffff82111561039457610393610302565b5b61039d826102f2565b9050602081019050919050565b828183375f83830152505050565b5f6103ca6103c58461037a565b610360565b9050828152602081018484840111156103e6576103e56102ee565b5b6103f18482856103aa565b509392505050565b5f82601f83011261040d5761040c6102ea565b5b813561041d8482602086016103b8565b91505092915050565b5f806040838503121561043c5761043b6102af565b5b5f610449858286016102d6565b925050602083013567ffffffffffffffff81111561046a576104696102b3565b5b610476858286016103f9565b9150509250929050565b5f60208284031215610495576104946102af565b5b5f6104a2848285016102d6565b91505092915050565b5f81519050919050565b5f82825260208201905092915050565b5f5b838110156104e25780820151818401526020810190506104c7565b5f8484015250505050565b5f6104f7826104ab565b61050181856104b5565b93506105118185602086016104c5565b61051a816102f2565b840191505092915050565b5f6020820190508181035f83015261053d81846104ed565b905092915050565b7f4e487b71000000000000000000000000000000000000000000000000000000005f52602260045260245ffd5b5f600282049050600182168061058957607f821691505b60208210810361059c5761059b610545565b5b50919050565b7f536368656d6120616c72656164792072656769737465726564000000000000005f82015250565b5f6105d66019836104b5565b91506105e1826105a2565b602082019050919050565b5f6020820190508181035f830152610603816105ca565b9050919050565b5f819050815f5260205f209050919050565b5f6020601f8301049050919050565b5f82821b905092915050565b5f600883026106667fffffffffffffffffffffffffffffffffffffffffffffffffffffffffffffffff8261062b565b610670868361062b565b95508019841693508086168417925050509392505050565b5f819050919050565b5f819050919050565b5f6106b46106af6106aa84610688565b610691565b610688565b9050919050565b5f819050919050565b6106cd8361069a565b6106e16106d9826106bb565b848454610637565b825550505050565b5f90565b6106f56106e9565b6107008184846106c4565b505050565b5b81811015610723576107185f826106ed565b600181019050610706565b5050565b601f821115610768576107398161060a565b6107428461061c565b81016020851015610751578190505b61076561075d8561061c565b830182610705565b50505b505050565b5f82821c905092915050565b5f6107885f198460080261076d565b1980831691505092915050565b5f6107a08383610779565b9150826002028217905092915050565b6107b9826104ab565b67ffffffffffffffff8111156107d2576107d1610302565b5b6107dc8254610572565b6107e7828285610727565b5f60209050601f831160018114610818575f8415610806578287015190505b6108108582610795565b865550610877565b601f1984166108268661060a565b5f5b8281101561084d57848901518255600182019150602085019450602081019050610828565b8683101561086a5784890151610866601f891682610779565b8355505b6001600288020188555050505b50505050505056fea264697066735822122060279e3130077abcc50e78372724f4b4d32ea2b322e04436bfe1a81d4c8ef7a364736f6c63430008150033",
  "immutableReferences": {},
  "source": "// SPDX-License-Identifier: MIT\r\npragma solidity ^0.8.0;\r\n\r\ncontract Resolver {\r\n    // Mapping to store schema data by schema UID\r\n    mapping(bytes32 => string) public schemas;\r\n\r\n    // Event to log schema registration\r\n    event SchemaRegistered(bytes32 indexed uid);\r\n\r\n    // Function to register a schema\r\n    function registerSchema(bytes32 uid, string memory schema) external {\r\n        require(bytes(schemas[uid]).length == 0, \"Schema already registered\");\r\n        schemas[uid] = schema;\r\n        emit SchemaRegistered(uid);\r\n    }\r\n\r\n    // Function to get schema by UID\r\n    function getSchema(bytes32 uid) external view returns (string memory) {\r\n        return schemas[uid];\r\n    }\r\n}\r\n",
  "sourcePath": "C:\\study\\WEU\\EAS\\contracts\\Resolver.sol",
  "compiler": {
    "name": "solc",
    "version": "0.8.21+commit.d9974bed.Emscripten.clang"
  },
  "schemaVersion": "3.4.16",
  "updatedAt": "2023-09-25T12:25:24.034Z",
  "networkType": "ethereum",
  "devdoc": {
    "kind": "dev",
    "methods": {},
    "version": 1
  },
  "userdoc": {
    "kind": "user",
    "methods": {},
    "version": 1
  }
}