{
  "contractName": "SchemaRegistry",
  "abi": [
    {
      "anonymous": false,
      "inputs": [
        {
          "indexed": true,
          "internalType": "bytes32",
          "name": "uid",
          "type": "bytes32"
        }
      ],
      "name": "SchemaRegistered",
      "type": "event"
    },
    {
      "inputs": [
        {
          "internalType": "bytes32",
          "name": "",
          "type": "bytes32"
        }
      ],
      "name": "schemas",
      "outputs": [
        {
          "internalType": "string",
          "name": "schema",
          "type": "string"
        },
        {
          "internalType": "address",
          "name": "resolverAddress",
          "type": "address"
        },
        {
          "internalType": "bool",
          "name": "revocable",
          "type": "bool"
        }
      ],
      "stateMutability": "view",
      "type": "function",
      "constant": true
    },
    {
      "inputs": [
        {
          "internalType": "string",
          "name": "_schema",
          "type": "string"
        },
        {
          "internalType": "address",
          "name": "_resolverAddress",
          "type": "address"
        },
        {
          "internalType": "bool",
          "name": "_revocable",
          "type": "bool"
        }
      ],
      "name": "register",
      "outputs": [],
      "stateMutability": "nonpayable",
      "type": "function"
    }
  ],
  "bytecode": "0x608060405234801561000f575f80fd5b50610b048061001d5f395ff3fe608060405234801561000f575f80fd5b5060043610610034575f3560e01c806360d7a27814610038578063ca2adef614610054575b5f80fd5b610052600480360381019061004d91906104fa565b610086565b005b61006e60048036038101906100699190610599565b610247565b60405161007d9392919061065c565b60405180910390f35b5f83838360405160200161009c9392919061075c565b6040516020818303038152906040528051906020012090505f73ffffffffffffffffffffffffffffffffffffffff165f808381526020019081526020015f206001015f9054906101000a900473ffffffffffffffffffffffffffffffffffffffff1673ffffffffffffffffffffffffffffffffffffffff1614610154576040517f08c379a000000000000000000000000000000000000000000000000000000000815260040161014b906107de565b60405180910390fd5b60405180606001604052808581526020018473ffffffffffffffffffffffffffffffffffffffff1681526020018315158152505f808381526020019081526020015f205f820151815f0190816101aa91906109ff565b506020820151816001015f6101000a81548173ffffffffffffffffffffffffffffffffffffffff021916908373ffffffffffffffffffffffffffffffffffffffff16021790555060408201518160010160146101000a81548160ff021916908315150217905550905050807feaf457e3ccde4913254e7c26bb98dbc141f4b7c4d02261367b13fc828f4f5e1560405160405180910390a250505050565b5f602052805f5260405f205f91509050805f01805461026590610829565b80601f016020809104026020016040519081016040528092919081815260200182805461029190610829565b80156102dc5780601f106102b3576101008083540402835291602001916102dc565b820191905f5260205f20905b8154815290600101906020018083116102bf57829003601f168201915b505050505090806001015f9054906101000a900473ffffffffffffffffffffffffffffffffffffffff16908060010160149054906101000a900460ff16905083565b5f604051905090565b5f80fd5b5f80fd5b5f80fd5b5f80fd5b5f601f19601f8301169050919050565b7f4e487b71000000000000000000000000000000000000000000000000000000005f52604160045260245ffd5b61037d82610337565b810181811067ffffffffffffffff8211171561039c5761039b610347565b5b80604052505050565b5f6103ae61031e565b90506103ba8282610374565b919050565b5f67ffffffffffffffff8211156103d9576103d8610347565b5b6103e282610337565b9050602081019050919050565b828183375f83830152505050565b5f61040f61040a846103bf565b6103a5565b90508281526020810184848401111561042b5761042a610333565b5b6104368482856103ef565b509392505050565b5f82601f8301126104525761045161032f565b5b81356104628482602086016103fd565b91505092915050565b5f73ffffffffffffffffffffffffffffffffffffffff82169050919050565b5f6104948261046b565b9050919050565b6104a48161048a565b81146104ae575f80fd5b50565b5f813590506104bf8161049b565b92915050565b5f8115159050919050565b6104d9816104c5565b81146104e3575f80fd5b50565b5f813590506104f4816104d0565b92915050565b5f805f6060848603121561051157610510610327565b5b5f84013567ffffffffffffffff81111561052e5761052d61032b565b5b61053a8682870161043e565b935050602061054b868287016104b1565b925050604061055c868287016104e6565b9150509250925092565b5f819050919050565b61057881610566565b8114610582575f80fd5b50565b5f813590506105938161056f565b92915050565b5f602082840312156105ae576105ad610327565b5b5f6105bb84828501610585565b91505092915050565b5f81519050919050565b5f82825260208201905092915050565b5f5b838110156105fb5780820151818401526020810190506105e0565b5f8484015250505050565b5f610610826105c4565b61061a81856105ce565b935061062a8185602086016105de565b61063381610337565b840191505092915050565b6106478161048a565b82525050565b610656816104c5565b82525050565b5f6060820190508181035f8301526106748186610606565b9050610683602083018561063e565b610690604083018461064d565b949350505050565b5f81905092915050565b5f6106ac826105c4565b6106b68185610698565b93506106c68185602086016105de565b80840191505092915050565b5f8160601b9050919050565b5f6106e8826106d2565b9050919050565b5f6106f9826106de565b9050919050565b61071161070c8261048a565b6106ef565b82525050565b5f8160f81b9050919050565b5f61072d82610717565b9050919050565b5f61073e82610723565b9050919050565b610756610751826104c5565b610734565b82525050565b5f61076782866106a2565b91506107738285610700565b6014820191506107838284610745565b600182019150819050949350505050565b7f536368656d6120616c72656164792072656769737465726564000000000000005f82015250565b5f6107c86019836105ce565b91506107d382610794565b602082019050919050565b5f6020820190508181035f8301526107f5816107bc565b9050919050565b7f4e487b71000000000000000000000000000000000000000000000000000000005f52602260045260245ffd5b5f600282049050600182168061084057607f821691505b602082108103610853576108526107fc565b5b50919050565b5f819050815f5260205f209050919050565b5f6020601f8301049050919050565b5f82821b905092915050565b5f600883026108b57fffffffffffffffffffffffffffffffffffffffffffffffffffffffffffffffff8261087a565b6108bf868361087a565b95508019841693508086168417925050509392505050565b5f819050919050565b5f819050919050565b5f6109036108fe6108f9846108d7565b6108e0565b6108d7565b9050919050565b5f819050919050565b61091c836108e9565b6109306109288261090a565b848454610886565b825550505050565b5f90565b610944610938565b61094f818484610913565b505050565b5b81811015610972576109675f8261093c565b600181019050610955565b5050565b601f8211156109b75761098881610859565b6109918461086b565b810160208510156109a0578190505b6109b46109ac8561086b565b830182610954565b50505b505050565b5f82821c905092915050565b5f6109d75f19846008026109bc565b1980831691505092915050565b5f6109ef83836109c8565b9150826002028217905092915050565b610a08826105c4565b67ffffffffffffffff811115610a2157610a20610347565b5b610a2b8254610829565b610a36828285610976565b5f60209050601f831160018114610a67575f8415610a55578287015190505b610a5f85826109e4565b865550610ac6565b601f198416610a7586610859565b5f5b82811015610a9c57848901518255600182019150602085019450602081019050610a77565b86831015610ab95784890151610ab5601f8916826109c8565b8355505b6001600288020188555050505b50505050505056fea264697066735822122012470596bfdc57fce127b1fdb7c7767cc64b34101f5da10bdc83cd3d4ac73bba64736f6c63430008150033",
  "immutableReferences": {},
  "source": "// SPDX-License-Identifier: MIT\r\npragma solidity ^0.8.0;\r\n\r\ncontract SchemaRegistry {\r\n    struct Schema {\r\n        string schema;\r\n        address resolverAddress;\r\n        bool revocable;\r\n    }\r\n\r\n    mapping(bytes32 => Schema) public schemas;\r\n\r\n    event SchemaRegistered(bytes32 indexed uid);\r\n\r\n    function register(string memory _schema, address _resolverAddress, bool _revocable) external {\r\n        bytes32 uid = keccak256(abi.encodePacked(_schema, _resolverAddress, _revocable));\r\n        require(schemas[uid].resolverAddress == address(0), \"Schema already registered\");\r\n\r\n        schemas[uid] = Schema(_schema, _resolverAddress, _revocable);\r\n        emit SchemaRegistered(uid);\r\n    }\r\n}\r\n",
  "sourcePath": "C:\\study\\WEU\\EAS\\contracts\\SchemaRegistry.sol",
  "compiler": {
    "name": "solc",
    "version": "0.8.21+commit.d9974bed.Emscripten.clang"
  },
  "schemaVersion": "3.4.16",
  "updatedAt": "2023-09-25T12:25:24.028Z",
  "networkType": "ethereum",
  "devdoc": {
    "kind": "dev",
    "methods": {},
    "version": 1
  },
  "userdoc": {
    "kind": "user",
    "methods": {},
    "version": 1
  }
}